:1000000001308A001A290000FF00030E8301A100BD
:100010000A08A0008A010408A2007708A300780853
:10002000A4007908A5007A08A600831383128C30F7
:100030008400001C1D280C182E2822088400230888
:10004000F7002408F8002508F9002608FA0020081F
:100050008A00210E8300FF0E7F0E09008A110A120A
:1000600046283908F8013802031839283808F700FB
:100070004528F7010830BA00B80DF70D39087702A6
:100080000318F700F80DBA0B3C280800B318022932
:10009000A70A2708053C03186B28A701B215A80A70
:1000A0002808093C03186B28A8013215A90A290859
:1000B0003B3C03186B28A901B214AA0A2A083B3C4E
:1000C00003186B28AA013214AB0A2B08173C03183B
:1000D0006B28AB01321632186F28321E8D28321071
:1000E00032122B08B8000A30B90031207708B0006E
:1000F00030082B02B700B8000A30B9003120780868
:10010000B10083168501831230088500831609101B
:1001100089100911831231088900B21CAC28B21071
:100120002A08B8000A30B90031207708AE002E083E
:100130002A02B700B8000A30B90031207808AF00B1
:100140002F0EF700F030F70577082E07B60083165C
:100150008601831236088600321DCD283211290807
:10016000B8000A30B90031207708AC002C08290209
:10017000B700B8000A30B90031207808AD002D0E64
:10018000F700F030F70577082C07B6000030B40010
:1001900083168701831236088700B21D0229B21127
:1001A000280CF700F70CF70C1F30F705770801391A
:1001B000031DDC288811DD28881583168811831219
:1001C000280CF700F70C3F30F70577080139031DBD
:1001D000EB280811EC280815831608110310831268
:1001E000280C0139031DF6288810F7288814831677
:1001F000881083122818FE280810FF280814831678
:10020000081083120C108A110A121D283530840040
:1002100083130008031919290630F800F701F70BBA
:100220000F29F80B0E297B30F700F70B1529800BEF
:100230000C290800A701A8012D30A9003B30AA0015
:100240001730AB00AC01AD01AE01AF01B001B1019F
:100250003214B2143215B2153216B2123213B2136E
:100260003310B310FF30B40083161F149F141F15F2
:100270009F1107309C0083131F3083058530831244
:1002800090008E018F014D308E000C1083160C14DF
:10029000C03083128B04FF30831688000816831247
:1002A000B212081AB2168316881683123213881AED
:1002B0003217831608178312B213081BB21783165E
:1002C000881783123310881B3314B21E7129023031
:1002D000B306C830B5000621831608168312081A23
:1002E0006C29321F7D29A9013215C830B5000621BD
:1002F000831688168312881A7829B21F8D29AA0AB4
:100300002A083B3C031CAA01B214C830B5000621E0
:10031000831608178312081B8829331C9E29AB0AF1
:100320002B08173C031CAB0132163214C830B50041
:100330000621831688178312881B99296430B5001B
:08034000062183164E2963001B
:02400E00323F3F
:00000001FF
;PIC16F877A
;CRC=BD16  CREATED="14-Mar-20 02:49"
