:1000000001308A001C290000FF00030E8301A100BB
:100010000A08A0008A010408A2007708A300780853
:10002000A4007908A5007A08A600831383128C30F7
:100030008400001C1D280C182E2822088400230888
:10004000F7002408F8002508F9002608FA0020081F
:100050008A00210E8300FF0E7F0E09008A110A120A
:10006000DE283F08F8013E02031839283E08F70051
:100070004528F7010830C000BE0DF70D3F08770294
:100080000318F700F80DC00B3C28080033184A2865
:10009000331E6828331033122C08BE000A30BF000C
:1000A00031207708B10031082C02BD00BE000A30B3
:1000B000BF0031207808B200831685018312310811
:1000C00085008316091089100911831232088900EE
:1000D000B31C8728B3102B08BE000A30BF003120A4
:1000E0007708AF002F082B02BD00BE000A30BF000A
:1000F00031207808B000300EF700F030F7057708AF
:100100002F07BC008316860183123C088600331D2E
:10011000A82833112A08BE000A30BF003120770812
:10012000AD002D082A02BD00BE000A30BF003120FC
:100130007808AE002E0EF700F030F70577082D078F
:10014000BC000030B6008316870183123C0887008C
:10015000B31DDD28B311290CF700F70CF70C1F3085
:10016000F70577080139031DB7288811B8288815C5
:10017000831688118312290CF700F70C3F30F7051E
:1001800077080139031DC6280811C72808158316EA
:10019000081103108312290C0139031DD12888107E
:1001A000D22888148316881083122918D928081099
:1001B000DA2808148316081083120800B4180429DA
:1001C000A80A2808053C03180329A801B315A90AA1
:1001D0002908093C03180329A9013315AA0A2A088A
:1001E0003B3C03180329AA01B314AB0A2B083B3C80
:1001F00003180329AB013314AC0A2C08173C03186D
:100200000329AC01331646200C108A110A121D284E
:10021000373084008313000803191B290630F800C7
:10022000F701F70B1129F80B10297B30F700F70BBA
:100230001729800B0E290800A801A901AA01AB010A
:10024000AC01AD01AE01AF01B001B101B201331497
:10025000B3143315B3153316B3123313B313341069
:10026000B501B410FF30B60083161F149F141F157C
:100270009F1107309C0083131F3083058530831244
:1002800090008E018F014D308E000C1083160C14DF
:10029000C03083128B04FF30831688000816831247
:1002A000B312081AB3168316881683123313881AEA
:1002B0003317831608178312B313081BB31783165B
:1002C000881783123410881B3414341C72290230AE
:1002D000B406C830B7000821B5018316081683128A
:1002E000081A6D29B41CF129B31F8329B50A3508F2
:1002F000033C031CB501C830B7000821831608175A
:100300008312081B7E29331FB6293508FC3E0318CB
:10031000A729043EF729AC0A2C08173C031CAC01A2
:1003200033163314A729AB0A2B083B3C031CAB0143
:10033000B314A729AA0A2A083B3C031CAA013315B7
:10034000A729A90A2908093C031CA901B315A7017B
:100350008B1BA7178B134620A71B8B17C830B70022
:100360000821831688168312881AB129B31EF12931
:100370003508FC3E0318E229043EFF29AC08031DA2
:10038000C4291730AC00C529AC0333163314E22955
:10039000AB08031DCE293B30AB00CF29AB03B31410
:1003A000E229AA08031DD7293B30AA00D829AA03AD
:1003B0003315E229A908031DE0290930A900E12924
:1003C000A903B315A7018B1BA7178B134620A71BE7
:1003D0008B17C830B7000821831608168312081A35
:1003E000EC293230B700082183164E2963000A1425
:1003F0008A100A1182078B2993299A29A1290A10A8
:0E0400008A140A118207BE29C829D129DA29D7
:02400E00323F3F
:00000001FF
;PIC16F877A
;CRC=DFCC  CREATED="03-Nis-20 18:32"
