:1000000002308A009A2A0000FF00030E8301A1003B
:100010000A08A0008A010408A2007708A300780853
:10002000A4007908A5007A08A600831383128C30F7
:100030008400001C1D280C182E2822088400230888
:10004000F7002408F8002508F9002608FA0020081F
:100050008A00210E8300FF0E7F0E09008A110A120A
:10006000252A4008003A03194828013A0319602854
:10007000033A03199728013A0319BE28073A0319CE
:10008000F528013A03192229033A0319612998290D
:100090004108023C031C5F280310410C0139031D79
:1000A0005328891054288914831689108312411803
:1000B0005B2809105C2809148316091083129829FB
:1000C0004108093C031C9628410CF700F70CF70C7B
:1000D0001F30F70577080139031D70288511712835
:1000E0008515831685118312410CF700F70C3F30FC
:1000F000F70577080139031D7F28051180280515AC
:100100008316051103108312410C0139031D8A283F
:1001100085108B2885148316851083124118922828
:100120000510932805148316051083129829410899
:10013000053C031CBD28410CF700F70C3F30F705C8
:1001400077080139031DA6280613A728061783166A
:10015000061303108312410C0139031DB1288612C6
:10016000B22886168316861283124118B928061201
:10017000BA28061683160612831298294108093CEC
:10018000031CF428410CF700F70CF70C1F30F7059F
:1001900077080139031DCE288611CF2886158316CE
:1001A00086118312410CF700F70C3F30F7057708F2
:1001B0000139031DDD280611DE28061583160611F8
:1001C00003108312410C0139031DE8288610E92829
:1001D00086148316861083124118F0280610F12821
:1001E000061483160610831298294108053C031C47
:1001F0002129410CF700F70C3F30F705770801394A
:10020000031D042907130529071738133808831617
:10021000870003108312410C0139031D1129871235
:1002200012298716B81238088316870083124118DE
:100230001B2907121C290716381238088316870055
:10024000831298294108093C031C6029410CF700DE
:10025000F70CF70C1F30F70577080139031D322919
:10026000871133298715B811380883168700831240
:10027000410CF700F70C3F30F70577080139031DF3
:1002800043290711442907153811380883168700B8
:1002900003108312410C0139031D50298710512985
:1002A0008714B810380883168700831241185A291A
:1002B00007105B290714381038088316870083124B
:1002C000982941080F3C031C9729410CF700F70CB3
:1002D000F70C1F30F70577080139031D71298811C4
:1002E00072298815831688118312410CF700F70CC8
:1002F0003F30F70577080139031D8029081181294E
:1003000008158316081103108312410C0139031DCF
:100310008B2988108C298814831688108312411821
:100320009329081094290814831608108312982919
:1003300008004308F80142020318A1294208F70007
:10034000AD29F7010830C400C20DF70D430877024C
:100350000318F700F80DC40BA42908003F083B3C24
:10036000031CCC293F08C2000A30C300992177083A
:10037000AF002F083F02C100C2000A30C30099211C
:100380007808B0000430C0003008C10031200530CA
:10039000C0002F08C100312008003F083B3C031C6F
:1003A000EB293F08C2000A30C30099217708B10049
:1003B00031083F02C100C2000A30C3009921780809
:1003C000B2000230C0003208C10031200330C0004A
:1003D0003108C100312008003F08173C031C092ADE
:1003E0003F08C2000A30C30099217708B3003308E0
:1003F0003F02C100C2000A30C30099217808B4004E
:10040000C0013408C10031200130C0003308C100F0
:1004100031200800B51D122AB5110630C000290888
:10042000C1003120351D182A35112A08BF00AE2120
:10043000B51C1E2AB5102B08BF00CD21351C242A5F
:1004400035102C08BF00EC210800B708031D4A2A0C
:10045000A80A2808053C0318492AA801B515A90AC5
:100460002908093C0318492AA9013515AA0A2A08AE
:100470003B3C0318492AAA01B514AB0A2B083B3CA4
:100480000318492AAB013514AC0A2C08173C031C8D
:10049000AC010A220C108A110A121D28B908031D8A
:1004A000532A8713542A8717B813380883168700EE
:1004B00083120800A7018B1BA7178B132E08BF0000
:1004C000EC21A71B8B17A7018B1BA7178B132D08DC
:1004D000BF00CD21A71B8B17A7018B1BA7178B1361
:1004E000BF01AE21A71B8B1708003930840083138E
:1004F00000080319882A0630F800F701F70B7E2A56
:10050000F80B7D2A7B30F700F70B842A800B7B2ABF
:1005100008002C082E02031D952A2B082D02031D0E
:10052000952A0130B9004E22972AB9014E228A112C
:100530000A12E22BA801A9011E30AA000230AB006A
:100540001130AC000330AD001130AE00AF01B0018E
:10055000B101B201B301B4013514B5143515B515A7
:100560003512B5123513B513B601B701FF30B80017
:1005700083161F149F141F159F1107309C008313AF
:100580001F3083058530831290008E018F014D301E
:100590008E000C1083160C14C03083128B04B9012A
:1005A0004E228316081683123512081A3516831642
:1005B00088168312B512881AB51683160817831287
:1005C0003513081B3517831688178312B513881B3C
:1005D000B517B51F282BB70A3708023C0318FC2AA9
:1005E000B7013514B5143515B515A7018B1BA71721
:1005F0008B130A22A71B8B173708013A0319042B08
:10060000033A0319102B1D2BA7018B1BA7178B1364
:100610000630C0000C30C1003120A71B8B171D2BEA
:10062000A7018B1BA7178B130630C0000A30C1002F
:100630003120A71B8B175A221D2BB601B9014E2260
:100640006430B9007522831688178312881B232B08
:10065000351F452BB70803193D2BB60A370B352B31
:100660003608023C031CB6013D2B3708023C031D33
:100670003D2B3608013C031CB6016430B9007522DD
:10068000831608178312081B402BB51E8E2B370BC1
:100690006F2B36080319532B013A03195A2B033ACF
:1006A0000319612B672BAC0A2C08173C031CAC0107
:1006B0003514672BAB0A2B083B3C031CAB01B5146C
:1006C000672BAA0A2A083B3C031CAA013515A7017F
:1006D0008B1BA7178B130A22A71B8B17862B370898
:1006E000023C031D862B360803197A2B013A0319A5
:1006F000802B852BAE0A2E08173C031CAE01852BE0
:10070000AD0A2D083B3C031CAD015A226430B900F0
:100710007522831688168312881A892B351EE12BC1
:10072000370BBE2B360803199C2B013A0319A52B56
:10073000033A0319AE2BB62BAC08031DA22B1730BE
:10074000AC00A32BAC033514B62BAB08031DAB2BAD
:100750003B30AB00AC2BAB03B514B62BAA08031D82
:10076000B42B3B30AA00B52BAA033515A7018B1B70
:10077000A7178B130A22A71B8B17D92B3708023C0C
:10078000031DD92B36080319C92B013A0319D12BA4
:10079000D82BAE08031DCF2B1730AE00D02BAE03E5
:1007A000D82BAD08031DD72B3B30AD00D82BAD03A4
:1007B0005A226430B9007522831608168312081A6B
:0E07C000DC2B892A3230B9007522D12A630061
:02400E00323F3F
:00000001FF
;PIC16F877A
;CRC=85A7  CREATED="10-May-20 17:04"
